{
  "contractName": "International",
  "abi": [
    {
      "constant": true,
      "inputs": [],
      "name": "assetdata",
      "outputs": [
        {
          "name": "size",
          "type": "uint256"
        }
      ],
      "payable": false,
      "stateMutability": "view",
      "type": "function",
      "signature": "0x386b7f99"
    },
    {
      "constant": true,
      "inputs": [],
      "name": "totalConfirmPurchases",
      "outputs": [
        {
          "name": "",
          "type": "uint256"
        }
      ],
      "payable": false,
      "stateMutability": "view",
      "type": "function",
      "signature": "0x43f82db7"
    },
    {
      "inputs": [],
      "payable": false,
      "stateMutability": "nonpayable",
      "type": "constructor",
      "signature": "constructor"
    },
    {
      "constant": false,
      "inputs": [
        {
          "name": "_num",
          "type": "uint256"
        },
        {
          "name": "OrderId",
          "type": "string"
        },
        {
          "name": "keys",
          "type": "string[]"
        },
        {
          "name": "values",
          "type": "string[]"
        }
      ],
      "name": "insertconfirmPurchase",
      "outputs": [
        {
          "name": "",
          "type": "bool"
        }
      ],
      "payable": false,
      "stateMutability": "nonpayable",
      "type": "function",
      "signature": "0x02bd26b7"
    },
    {
      "constant": false,
      "inputs": [
        {
          "name": "_num",
          "type": "uint256"
        },
        {
          "name": "OrderId",
          "type": "string"
        },
        {
          "name": "key",
          "type": "string"
        },
        {
          "name": "values",
          "type": "string[]"
        }
      ],
      "name": "queryconfirmPurchase",
      "outputs": [
        {
          "name": "",
          "type": "string"
        }
      ],
      "payable": false,
      "stateMutability": "nonpayable",
      "type": "function",
      "signature": "0x4c418037"
    },
    {
      "constant": false,
      "inputs": [],
      "name": "queryTotalPurchase",
      "outputs": [
        {
          "name": "",
          "type": "uint256"
        }
      ],
      "payable": false,
      "stateMutability": "nonpayable",
      "type": "function",
      "signature": "0xf08d610c"
    }
  ],
  "bytecode": "0x608060405234801561001057600080fd5b506000600381905550611176806100286000396000f3fe60806040526004361061006d576000357c0100000000000000000000000000000000000000000000000000000000900463ffffffff16806302bd26b714610072578063386b7f99146100af57806343f82db7146100da5780634c41803714610105578063f08d610c14610142575b600080fd5b34801561007e57600080fd5b5061009960048036036100949190810190610e0f565b61016d565b6040516100a69190610fb9565b60405180910390f35b3480156100bb57600080fd5b506100c4610217565b6040516100d19190610ff6565b60405180910390f35b3480156100e657600080fd5b506100ef610223565b6040516100fc9190610ff6565b60405180910390f35b34801561011157600080fd5b5061012c60048036036101279190810190610eba565b610229565b6040516101399190610fd4565b60405180910390f35b34801561014e57600080fd5b506101576102a2565b6040516101649190610ff6565b60405180910390f35b6000806004600087815260200190815260200160002090508481600001908051906020019061019d929190610b77565b5060008090505b84518110156101f7576101e98260010186838151811015156101c257fe5b9060200190602002015186848151811015156101da57fe5b906020019060200201516102ac565b5080806001019150506101a4565b506003600081548092919060010191905055506001915050949350505050565b60008060020154905081565b60035481565b606060008090505b6003548110156102985761025a60046000838152602001908152602001600020600001866104a2565b1561028b57606061027f6004600084815260200190815260200160002060010161059b565b9050809250505061029a565b8080600101915050610231565b505b949350505050565b6000600354905090565b60008084600001846040518082805190602001908083835b6020831015156102e957805182526020820191506020810190506020830392506102c4565b6001836020036101000a03801982511681845116808217855250505050505090500191505090815260200160405180910390206000015490508285600001856040518082805190602001908083835b60208310151561035d5780518252602082019150602081019050602083039250610338565b6001836020036101000a038019825116818451168082178552505050505050905001915050908152602001604051809103902060010190805190602001906103a6929190610b77565b5060008111156103ba57600191505061049b565b8460010180548091906001016103d09190610bf7565b90506001810185600001856040518082805190602001908083835b60208310151561041057805182526020820191506020810190506020830392506103eb565b6001836020036101000a03801982511681845116808217855250505050505090500191505090815260200160405180910390206000018190555083856001018281548110151561045c57fe5b90600052602060002090600202016000019080519060200190610480929190610b77565b50846002016000815480929190600101919050555060009150505b9392505050565b6000816040516020018082805190602001908083835b6020831015156104dd57805182526020820191506020810190506020830392506104b8565b6001836020036101000a038019825116818451168082178552505050505050905001915050604051602081830303815290604052805190602001208360405160200180828054600181600116156101000203166002900480156105775780601f10610555576101008083540402835291820191610577565b820191906000526020600020905b815481529060010190602001808311610563575b50509150506040516020818303038152906040528051906020012014905092915050565b60608060608060006105ac8661062b565b90505b6105b9868261065e565b15610613576060806105cb8884610672565b809250819350505060008314156105e757819550809450610600565b6105f18683610844565b95506105fd8582610844565b94505b505061060c8682610b0f565b90506105af565b5061061e8383610844565b9050809350505050919050565b6000610657827fffffffffffffffffffffffffffffffffffffffffffffffffffffffffffffffff610b0f565b9050919050565b600082600101805490508210905092915050565b606080836001018381548110151561068657fe5b90600052602060002090600202016000018054600181600116156101000203166002900480601f01602080910402602001604051908101604052809291908181526020018280546001816001161561010002031660029004801561072b5780601f106107005761010080835404028352916020019161072b565b820191906000526020600020905b81548152906001019060200180831161070e57829003601f168201915b5050505050915083600001826040518082805190602001908083835b60208310151561076c5780518252602082019150602081019050602083039250610747565b6001836020036101000a03801982511681845116808217855250505050505090500191505090815260200160405180910390206001018054600181600116156101000203166002900480601f0160208091040260200160405190810160405280929190818152602001828054600181600116156101000203166002900480156108365780601f1061080b57610100808354040283529160200191610836565b820191906000526020600020905b81548152906001019060200180831161081957829003601f168201915b505050505090509250929050565b606080839050606083905060606040805190810160405280600181526020017f2c000000000000000000000000000000000000000000000000000000000000008152509050606081518351855101016040519080825280601f01601f1916602001820160405280156108c55781602001600182028038833980820191505090505b5090506060819050600080905060008090505b865181101561098b5786818151811015156108ef57fe5b9060200101517f010000000000000000000000000000000000000000000000000000000000000090047f010000000000000000000000000000000000000000000000000000000000000002838380600101945081518110151561094e57fe5b9060200101907effffffffffffffffffffffffffffffffffffffffffffffffffffffffffffff1916908160001a90535080806001019150506108d8565b5060008090505b8451811015610a455784818151811015156109a957fe5b9060200101517f010000000000000000000000000000000000000000000000000000000000000090047f0100000000000000000000000000000000000000000000000000000000000000028383806001019450815181101515610a0857fe5b9060200101907effffffffffffffffffffffffffffffffffffffffffffffffffffffffffffff1916908160001a9053508080600101915050610992565b5060008090505b8551811015610aff578581815181101515610a6357fe5b9060200101517f010000000000000000000000000000000000000000000000000000000000000090047f0100000000000000000000000000000000000000000000000000000000000000028383806001019450815181101515610ac257fe5b9060200101907effffffffffffffffffffffffffffffffffffffffffffffffffffffffffffff1916908160001a9053508080600101915050610a4c565b5082965050505050505092915050565b600081806001019250505b826001018054905082108015610b5c57508260010182815481101515610b3c57fe5b906000526020600020906002020160010160009054906101000a900460ff165b15610b6e578180600101925050610b1a565b81905092915050565b828054600181600116156101000203166002900490600052602060002090601f016020900481019282601f10610bb857805160ff1916838001178555610be6565b82800160010185558215610be6579182015b82811115610be5578251825591602001919060010190610bca565b5b509050610bf39190610c29565b5090565b815481835581811115610c2457600202816002028360005260206000209182019101610c239190610c4e565b5b505050565b610c4b91905b80821115610c47576000816000905550600101610c2f565b5090565b90565b610c8e91905b80821115610c8a5760008082016000610c6d9190610c91565b6001820160006101000a81549060ff021916905550600201610c54565b5090565b90565b50805460018160011615610100020316600290046000825580601f10610cb75750610cd6565b601f016020900490600052602060002090810190610cd59190610c29565b5b50565b600082601f8301121515610cec57600080fd5b8135610cff610cfa8261103e565b611011565b9150818183526020840193506020810190508360005b83811015610d455781358601610d2b8882610d4f565b845260208401935060208301925050600181019050610d15565b5050505092915050565b600082601f8301121515610d6257600080fd5b8135610d75610d7082611066565b611011565b91508082526020830160208301858383011115610d9157600080fd5b610d9c8382846110e9565b50505092915050565b600082601f8301121515610db857600080fd5b8135610dcb610dc682611092565b611011565b91508082526020830160208301858383011115610de757600080fd5b610df28382846110e9565b50505092915050565b6000610e0782356110df565b905092915050565b60008060008060808587031215610e2557600080fd5b6000610e3387828801610dfb565b945050602085013567ffffffffffffffff811115610e5057600080fd5b610e5c87828801610da5565b935050604085013567ffffffffffffffff811115610e7957600080fd5b610e8587828801610cd9565b925050606085013567ffffffffffffffff811115610ea257600080fd5b610eae87828801610cd9565b91505092959194509250565b60008060008060808587031215610ed057600080fd5b6000610ede87828801610dfb565b945050602085013567ffffffffffffffff811115610efb57600080fd5b610f0787828801610da5565b935050604085013567ffffffffffffffff811115610f2457600080fd5b610f3087828801610da5565b925050606085013567ffffffffffffffff811115610f4d57600080fd5b610f5987828801610cd9565b91505092959194509250565b610f6e816110c9565b82525050565b6000610f7f826110be565b808452610f938160208601602086016110f8565b610f9c8161112b565b602085010191505092915050565b610fb3816110d5565b82525050565b6000602082019050610fce6000830184610f65565b92915050565b60006020820190508181036000830152610fee8184610f74565b905092915050565b600060208201905061100b6000830184610faa565b92915050565b6000604051905081810181811067ffffffffffffffff8211171561103457600080fd5b8060405250919050565b600067ffffffffffffffff82111561105557600080fd5b602082029050602081019050919050565b600067ffffffffffffffff82111561107d57600080fd5b601f19601f8301169050602081019050919050565b600067ffffffffffffffff8211156110a957600080fd5b601f19601f8301169050602081019050919050565b600081519050919050565b60008115159050919050565b6000819050919050565b6000819050919050565b82818337600083830152505050565b60005b838110156111165780820151818401526020810190506110fb565b83811115611125576000848401525b50505050565b6000601f19601f830116905091905056fea265627a7a7230582017d6e79009086a88e0088869674bfdf5e465e47040fd2494962f57c88087d7006c6578706572696d656e74616cf50037",
  "source": "pragma solidity ^0.5.0;\npragma experimental ABIEncoderV2;\n\nimport \"./iterable_mapping.sol\";\nimport \"./stringTools.sol\";\n\ncontract International {\n    \n    IterableMapping.itmap public assetdata;\n    \n    struct confirmPurchase {\n        string OrderId;    //Confirmpurchase\n        //string createAt;    //1566278738 uinx\n        IterableMapping.itmap confirmPurchaseData;    //map{\"buyer\",\"tdergouzi\"}\n    }\n    uint256 public totalConfirmPurchases;\n    \n    constructor() public{\n        totalConfirmPurchases = 0;\n    }\n    \n    struct shipping {\n        string OrderId;    //Transportation\n        //string createAt;    //1566278924 uinx\n        IterableMapping.itmap shippingData; //\n    }\n    \n    struct label {\n        string OrderId;    //Marking\n        //string createAt;    //1566278924 uinx\n        IterableMapping.itmap labelData; \n    }\n    \n    struct store {\n        string OrderId; //Into\n        //string createAt;\n        IterableMapping.itmap storeData;\n    }\n    \n    \n    mapping(uint256 => confirmPurchase)  tokenIdtoconfirmPurchase;\n    \n    function insertconfirmPurchase(uint256 _num,string memory OrderId,string[] memory keys, string[] memory values) public returns(bool){\n        confirmPurchase storage newConfirmPurchase = tokenIdtoconfirmPurchase[_num];\n        newConfirmPurchase.OrderId = OrderId;\n        for (uint i = 0; i < keys.length; i++) {\n            IterableMapping.insert(newConfirmPurchase.confirmPurchaseData,keys[i], values[i]);\n        }\n        totalConfirmPurchases++;\n        return true;\n    }\n    \n    function queryconfirmPurchase(uint256 _num, string memory OrderId,string memory key, string[] memory values) public returns(string memory){\n         for (uint i=0; i<totalConfirmPurchases;i++){\n             if (StringTools.compareStrings(tokenIdtoconfirmPurchase[i].OrderId, OrderId)){\n                string memory KVS = keyValues(tokenIdtoconfirmPurchase[i].confirmPurchaseData);         \n                //string memory values = values(tokenIdtoconfirmPurchase[i].confirmPurchaseData);\n                //string memory results = StringTools._strConcat(keys,values);\n                return KVS;\n             }\n         }\n         //return tokenIdtoconfirmPurchase[_num].confirmPurchaseData.data[key].value;\n    }\n    \n    function queryTotalPurchase() public returns(uint256){\n        return totalConfirmPurchases;\n    }\n\n    function keyValues(IterableMapping.itmap storage im) internal returns (string memory) {\n        string memory keys;\n        string memory values;\n        string memory results;\n        for (uint i = IterableMapping.iterate_start(im); IterableMapping.iterate_valid(im, i); i = IterableMapping.iterate_next(im, i)) {\n            string memory key;\n            string memory value;\n            (key,value) = IterableMapping.iterate_get(im, i);\n            if (i == 0) {\n                keys = key;\n                values = value;\n            }else {\n                keys = StringTools._strConcat(keys,key);\n                values = StringTools._strConcat(values,value);\n            }\n        }\n        //return values;\n        return results = StringTools._strConcat(keys,values);\n        //return results;\n    }\n    \n}\n    \n",
  "sourcePath": "/root/AntService/cross-border/truffle/contracts/CRUD.sol",
  "compiler": {
    "name": "solc",
    "version": "0.5.0+commit.1d4f565a.Emscripten.clang"
  },
  "schemaVersion": "3.0.2",
  "updatedAt": "2019-08-27T09:25:19.116Z",
  "devdoc": {
    "methods": {}
  },
  "userdoc": {
    "methods": {}
  }
}