{
  "contractName": "International",
  "abi": [
    {
      "constant": true,
      "inputs": [],
      "name": "assetdata",
      "outputs": [
        {
          "name": "size",
          "type": "uint256"
        }
      ],
      "payable": false,
      "stateMutability": "view",
      "type": "function",
      "signature": "0x386b7f99"
    },
    {
      "constant": true,
      "inputs": [],
      "name": "totalConfirmPurchases",
      "outputs": [
        {
          "name": "",
          "type": "uint256"
        }
      ],
      "payable": false,
      "stateMutability": "view",
      "type": "function",
      "signature": "0x43f82db7"
    },
    {
      "inputs": [],
      "payable": false,
      "stateMutability": "nonpayable",
      "type": "constructor",
      "signature": "constructor"
    },
    {
      "constant": false,
      "inputs": [
        {
          "name": "_num",
          "type": "uint256"
        },
        {
          "name": "orderId",
          "type": "string"
        },
        {
          "name": "contract_name",
          "type": "string"
        },
        {
          "name": "keys",
          "type": "string[]"
        },
        {
          "name": "values",
          "type": "string[]"
        }
      ],
      "name": "insertconfirmPurchase",
      "outputs": [
        {
          "name": "",
          "type": "bool"
        }
      ],
      "payable": false,
      "stateMutability": "nonpayable",
      "type": "function",
      "signature": "0x100cb11c"
    },
    {
      "constant": false,
      "inputs": [
        {
          "name": "total",
          "type": "uint256"
        },
        {
          "name": "_num",
          "type": "uint256"
        },
        {
          "name": "orderId",
          "type": "string"
        },
        {
          "name": "contract_name",
          "type": "string"
        },
        {
          "name": "key",
          "type": "string"
        },
        {
          "name": "values",
          "type": "string[]"
        }
      ],
      "name": "queryconfirmPurchase",
      "outputs": [
        {
          "name": "",
          "type": "string"
        }
      ],
      "payable": false,
      "stateMutability": "nonpayable",
      "type": "function",
      "signature": "0xec88cd51"
    },
    {
      "constant": false,
      "inputs": [],
      "name": "queryTotalPurchase",
      "outputs": [
        {
          "name": "",
          "type": "uint256"
        }
      ],
      "payable": false,
      "stateMutability": "nonpayable",
      "type": "function",
      "signature": "0xf08d610c"
    }
  ],
  "bytecode": "0x608060405234801561001057600080fd5b50600060038190555061156d806100286000396000f3fe60806040526004361061006d576000357c0100000000000000000000000000000000000000000000000000000000900463ffffffff168063100cb11c14610072578063386b7f99146100af57806343f82db7146100da578063ec88cd5114610105578063f08d610c14610142575b600080fd5b34801561007e57600080fd5b506100996004803603610094919081019061119c565b61016d565b6040516100a691906113b0565b60405180910390f35b3480156100bb57600080fd5b506100c4610231565b6040516100d191906113ed565b60405180910390f35b3480156100e657600080fd5b506100ef61023d565b6040516100fc91906113ed565b60405180910390f35b34801561011157600080fd5b5061012c60048036036101279190810190611273565b610243565b60405161013991906113cb565b60405180910390f35b34801561014e57600080fd5b5061015761053c565b60405161016491906113ed565b60405180910390f35b6000806004600088815260200190815260200160002090508581600001908051906020019061019d929190610f04565b50848160010190805190602001906101b6929190610f04565b5060008090505b8451811015610210576102028260020186838151811015156101db57fe5b9060200190602002015186848151811015156101f357fe5b90602001906020020151610546565b5080806001019150506101bd565b50600360008154809291906001019190505550600191505095945050505050565b60008060020154905081565b60035481565b6060806000600190505b8881101561052d57610294876040805190810160405280600281526020017f4e4100000000000000000000000000000000000000000000000000000000000081525061073c565b80156102dc57506102da866040805190810160405280600281526020017f4e4100000000000000000000000000000000000000000000000000000000000081525061073c565b155b1561033657610300600460008381526020019081526020016000206001018761082f565b1561033557606061032560046000848152602001908152602001600020600201610928565b905061033183826109b8565b9250505b5b610375866040805190810160405280600281526020017f4e4100000000000000000000000000000000000000000000000000000000000081525061073c565b80156103bd57506103bb876040805190810160405280600281526020017f4e4100000000000000000000000000000000000000000000000000000000000081525061073c565b155b15610417576103e1600460008381526020019081526020016000206000018861082f565b1561041657606061040660046000848152602001908152602001600020600201610928565b905061041283826109b8565b9250505b5b610456866040805190810160405280600281526020017f4e4100000000000000000000000000000000000000000000000000000000000081525061073c565b15801561049f575061049d876040805190810160405280600281526020017f4e4100000000000000000000000000000000000000000000000000000000000081525061073c565b155b15610520576104c3600460008381526020019081526020016000206000018861082f565b80156104ea57506104e9600460008381526020019081526020016000206001018761082f565b5b1561051f57606061050f60046000848152602001908152602001600020600201610928565b905061051b83826109b8565b9250505b5b808060010191505061024d565b50809150509695505050505050565b6000600354905090565b60008084600001846040518082805190602001908083835b602083101515610583578051825260208201915060208101905060208303925061055e565b6001836020036101000a03801982511681845116808217855250505050505090500191505090815260200160405180910390206000015490508285600001856040518082805190602001908083835b6020831015156105f757805182526020820191506020810190506020830392506105d2565b6001836020036101000a03801982511681845116808217855250505050505090500191505090815260200160405180910390206001019080519060200190610640929190610f04565b506000811115610654576001915050610735565b84600101805480919060010161066a9190610f84565b90506001810185600001856040518082805190602001908083835b6020831015156106aa5780518252602082019150602081019050602083039250610685565b6001836020036101000a0380198251168184511680821785525050505050509050019150509081526020016040518091039020600001819055508385600101828154811015156106f657fe5b9060005260206000209060020201600001908051906020019061071a929190610f04565b50846002016000815480929190600101919050555060009150505b9392505050565b6000816040516020018082805190602001908083835b6020831015156107775780518252602082019150602081019050602083039250610752565b6001836020036101000a03801982511681845116808217855250505050505090500191505060405160208183030381529060405280519060200120836040516020018082805190602001908083835b6020831015156107eb57805182526020820191506020810190506020830392506107c6565b6001836020036101000a0380198251168184511680821785525050505050509050019150506040516020818303038152906040528051906020012014905092915050565b6000816040516020018082805190602001908083835b60208310151561086a5780518252602082019150602081019050602083039250610845565b6001836020036101000a038019825116818451168082178552505050505050905001915050604051602081830303815290604052805190602001208360405160200180828054600181600116156101000203166002900480156109045780601f106108e2576101008083540402835291820191610904565b820191906000526020600020905b8154815290600101906020018083116108f0575b50509150506040516020818303038152906040528051906020012014905092915050565b606080606080600061093986610c83565b90505b6109468682610cb6565b156109a0576060806109588884610cca565b809250819350505060008314156109745781955080945061098d565b61097e86836109b8565b955061098a85826109b8565b94505b50506109998682610e9c565b905061093c565b506109ab83836109b8565b9050809350505050919050565b606080839050606083905060606040805190810160405280600181526020017f2c000000000000000000000000000000000000000000000000000000000000008152509050606081518351855101016040519080825280601f01601f191660200182016040528015610a395781602001600182028038833980820191505090505b5090506060819050600080905060008090505b8651811015610aff578681815181101515610a6357fe5b9060200101517f010000000000000000000000000000000000000000000000000000000000000090047f0100000000000000000000000000000000000000000000000000000000000000028383806001019450815181101515610ac257fe5b9060200101907effffffffffffffffffffffffffffffffffffffffffffffffffffffffffffff1916908160001a9053508080600101915050610a4c565b5060008090505b8451811015610bb9578481815181101515610b1d57fe5b9060200101517f010000000000000000000000000000000000000000000000000000000000000090047f0100000000000000000000000000000000000000000000000000000000000000028383806001019450815181101515610b7c57fe5b9060200101907effffffffffffffffffffffffffffffffffffffffffffffffffffffffffffff1916908160001a9053508080600101915050610b06565b5060008090505b8551811015610c73578581815181101515610bd757fe5b9060200101517f010000000000000000000000000000000000000000000000000000000000000090047f0100000000000000000000000000000000000000000000000000000000000000028383806001019450815181101515610c3657fe5b9060200101907effffffffffffffffffffffffffffffffffffffffffffffffffffffffffffff1916908160001a9053508080600101915050610bc0565b5082965050505050505092915050565b6000610caf827fffffffffffffffffffffffffffffffffffffffffffffffffffffffffffffffff610e9c565b9050919050565b600082600101805490508210905092915050565b6060808360010183815481101515610cde57fe5b90600052602060002090600202016000018054600181600116156101000203166002900480601f016020809104026020016040519081016040528092919081815260200182805460018160011615610100020316600290048015610d835780601f10610d5857610100808354040283529160200191610d83565b820191906000526020600020905b815481529060010190602001808311610d6657829003601f168201915b5050505050915083600001826040518082805190602001908083835b602083101515610dc45780518252602082019150602081019050602083039250610d9f565b6001836020036101000a03801982511681845116808217855250505050505090500191505090815260200160405180910390206001018054600181600116156101000203166002900480601f016020809104026020016040519081016040528092919081815260200182805460018160011615610100020316600290048015610e8e5780601f10610e6357610100808354040283529160200191610e8e565b820191906000526020600020905b815481529060010190602001808311610e7157829003601f168201915b505050505090509250929050565b600081806001019250505b826001018054905082108015610ee957508260010182815481101515610ec957fe5b906000526020600020906002020160010160009054906101000a900460ff165b15610efb578180600101925050610ea7565b81905092915050565b828054600181600116156101000203166002900490600052602060002090601f016020900481019282601f10610f4557805160ff1916838001178555610f73565b82800160010185558215610f73579182015b82811115610f72578251825591602001919060010190610f57565b5b509050610f809190610fb6565b5090565b815481835581811115610fb157600202816002028360005260206000209182019101610fb09190610fdb565b5b505050565b610fd891905b80821115610fd4576000816000905550600101610fbc565b5090565b90565b61101b91905b808211156110175760008082016000610ffa919061101e565b6001820160006101000a81549060ff021916905550600201610fe1565b5090565b90565b50805460018160011615610100020316600290046000825580601f106110445750611063565b601f0160209004906000526020600020908101906110629190610fb6565b5b50565b600082601f830112151561107957600080fd5b813561108c61108782611435565b611408565b9150818183526020840193506020810190508360005b838110156110d257813586016110b888826110dc565b8452602084019350602083019250506001810190506110a2565b5050505092915050565b600082601f83011215156110ef57600080fd5b81356111026110fd8261145d565b611408565b9150808252602083016020830185838301111561111e57600080fd5b6111298382846114e0565b50505092915050565b600082601f830112151561114557600080fd5b813561115861115382611489565b611408565b9150808252602083016020830185838301111561117457600080fd5b61117f8382846114e0565b50505092915050565b600061119482356114d6565b905092915050565b600080600080600060a086880312156111b457600080fd5b60006111c288828901611188565b955050602086013567ffffffffffffffff8111156111df57600080fd5b6111eb88828901611132565b945050604086013567ffffffffffffffff81111561120857600080fd5b61121488828901611132565b935050606086013567ffffffffffffffff81111561123157600080fd5b61123d88828901611066565b925050608086013567ffffffffffffffff81111561125a57600080fd5b61126688828901611066565b9150509295509295909350565b60008060008060008060c0878903121561128c57600080fd5b600061129a89828a01611188565b96505060206112ab89828a01611188565b955050604087013567ffffffffffffffff8111156112c857600080fd5b6112d489828a01611132565b945050606087013567ffffffffffffffff8111156112f157600080fd5b6112fd89828a01611132565b935050608087013567ffffffffffffffff81111561131a57600080fd5b61132689828a01611132565b92505060a087013567ffffffffffffffff81111561134357600080fd5b61134f89828a01611066565b9150509295509295509295565b611365816114c0565b82525050565b6000611376826114b5565b80845261138a8160208601602086016114ef565b61139381611522565b602085010191505092915050565b6113aa816114cc565b82525050565b60006020820190506113c5600083018461135c565b92915050565b600060208201905081810360008301526113e5818461136b565b905092915050565b600060208201905061140260008301846113a1565b92915050565b6000604051905081810181811067ffffffffffffffff8211171561142b57600080fd5b8060405250919050565b600067ffffffffffffffff82111561144c57600080fd5b602082029050602081019050919050565b600067ffffffffffffffff82111561147457600080fd5b601f19601f8301169050602081019050919050565b600067ffffffffffffffff8211156114a057600080fd5b601f19601f8301169050602081019050919050565b600081519050919050565b60008115159050919050565b6000819050919050565b6000819050919050565b82818337600083830152505050565b60005b8381101561150d5780820151818401526020810190506114f2565b8381111561151c576000848401525b50505050565b6000601f19601f830116905091905056fea265627a7a72305820fb5ce27900702d361335b784cb081c33c6c250a36e2c9a0a676a5eb0a9b0f7de6c6578706572696d656e74616cf50037",
  "source": "pragma solidity ^0.5.0;\npragma experimental ABIEncoderV2;\n\nimport \"./iterable_mapping.sol\";\nimport \"./stringTools.sol\";\n\ncontract International {\n    \n    IterableMapping.itmap public assetdata;\n    \n    struct confirmPurchase {\n        string orderId;    //Confirmpurchase\n        string contract_name;\n        //string createAt;    //1566278738 uinx\n        IterableMapping.itmap confirmPurchaseData;    //map{\"buyer\",\"tdergouzi\"}\n    }\n    uint256 public totalConfirmPurchases;\n    \n    constructor() public{\n        totalConfirmPurchases = 0;\n    }\n    \n    mapping(uint256 => confirmPurchase)  tokenIdtoconfirmPurchase;\n    \n    function insertconfirmPurchase(uint256 _num,string memory orderId,string memory contract_name,string[] memory keys, string[] memory values) public returns(bool){\n        confirmPurchase storage newConfirmPurchase = tokenIdtoconfirmPurchase[_num];\n        newConfirmPurchase.orderId = orderId;\n        newConfirmPurchase.contract_name = contract_name;\n        for (uint i = 0; i < keys.length; i++) {\n            IterableMapping.insert(newConfirmPurchase.confirmPurchaseData,keys[i], values[i]);\n        }\n        totalConfirmPurchases++;\n        return true;\n    }\n    \n    function queryconfirmPurchase(uint256 total, uint256 _num, string memory orderId, string memory contract_name, string memory key, string[] memory values) public returns(string memory){\n        string memory results;\n        for (uint i=1; i< total ; i++){\n             //searching contract_name,ignore which orderId is \n             if (  (StringTools.compareStrings2(orderId, \"NA\"))    &&   (!(StringTools.compareStrings2(contract_name, \"NA\"))) ){\n               if (StringTools.compareStrings(tokenIdtoconfirmPurchase[i].contract_name, contract_name)){\n                string memory KVS = keyValues(tokenIdtoconfirmPurchase[i].confirmPurchaseData);\n                results = StringTools._strConcat(results,KVS);\n             }\n           }\n              //searching orderId, ignore which contract_name is \n              if (  (StringTools.compareStrings2(contract_name, \"NA\"))    &&   (!(StringTools.compareStrings2(orderId, \"NA\"))) ){\n                if (StringTools.compareStrings(tokenIdtoconfirmPurchase[i].orderId, orderId)){\n                string memory KVS = keyValues(tokenIdtoconfirmPurchase[i].confirmPurchaseData);\n                results = StringTools._strConcat(results,KVS);\n             }\n           }\n               //searching both orderId and contract_name\n              if (  (!(StringTools.compareStrings2(contract_name, \"NA\")))    &&   (!(StringTools.compareStrings2(orderId, \"NA\"))) ){\n                if (   (StringTools.compareStrings(tokenIdtoconfirmPurchase[i].orderId, orderId))   &&     (StringTools.compareStrings(tokenIdtoconfirmPurchase[i].contract_name, contract_name)) ){\n                string memory KVS = keyValues(tokenIdtoconfirmPurchase[i].confirmPurchaseData);\n                results = StringTools._strConcat(results,KVS);\n             }\n           }\n        }\n        return results;\n    }\n    \n    //function querybyContractname(...){\n\n    \n    function queryTotalPurchase() public returns(uint256){\n        return totalConfirmPurchases;\n    }\n    \n    function keyValues(IterableMapping.itmap storage im) internal returns (string memory) {\n        string memory keys;\n        string memory values;\n        string memory results;\n        for (uint i = IterableMapping.iterate_start(im); IterableMapping.iterate_valid(im, i); i = IterableMapping.iterate_next(im, i)) {\n            string memory key;\n            string memory value;\n            (key,value) = IterableMapping.iterate_get(im, i);\n            if (i == 0) {\n                keys = key;\n                values = value;\n            }else {\n                keys = StringTools._strConcat(keys,key);\n                values = StringTools._strConcat(values,value);\n            }\n        }\n        return results = StringTools._strConcat(keys,values);\n        \n    }\n}\n    \n",
  "sourcePath": "/root/AntService/cross-border/truffle/contracts/CRUD.sol",
  "compiler": {
    "name": "solc",
    "version": "0.5.0+commit.1d4f565a.Emscripten.clang"
  },
  "schemaVersion": "3.0.2",
  "updatedAt": "2019-09-09T08:43:36.136Z",
  "devdoc": {
    "methods": {}
  },
  "userdoc": {
    "methods": {}
  }
}