{
  "contractName": "International",
  "abi": [
    {
      "constant": true,
      "inputs": [],
      "name": "assetdata",
      "outputs": [
        {
          "name": "size",
          "type": "uint256"
        }
      ],
      "payable": false,
      "stateMutability": "view",
      "type": "function",
      "signature": "0x386b7f99"
    },
    {
      "constant": true,
      "inputs": [],
      "name": "totalConfirmPurchases",
      "outputs": [
        {
          "name": "",
          "type": "uint256"
        }
      ],
      "payable": false,
      "stateMutability": "view",
      "type": "function",
      "signature": "0x43f82db7"
    },
    {
      "inputs": [],
      "payable": false,
      "stateMutability": "nonpayable",
      "type": "constructor",
      "signature": "constructor"
    },
    {
      "constant": false,
      "inputs": [
        {
          "name": "_num",
          "type": "uint256"
        },
        {
          "name": "OrderId",
          "type": "string"
        },
        {
          "name": "keys",
          "type": "string[]"
        },
        {
          "name": "values",
          "type": "string[]"
        }
      ],
      "name": "insertconfirmPurchase",
      "outputs": [
        {
          "name": "",
          "type": "bool"
        }
      ],
      "payable": false,
      "stateMutability": "nonpayable",
      "type": "function",
      "signature": "0x02bd26b7"
    },
    {
      "constant": false,
      "inputs": [
        {
          "name": "_num",
          "type": "uint256"
        },
        {
          "name": "OrderId",
          "type": "string"
        },
        {
          "name": "key",
          "type": "string"
        },
        {
          "name": "values",
          "type": "string[]"
        }
      ],
      "name": "queryconfirmPurchase",
      "outputs": [
        {
          "name": "",
          "type": "string"
        }
      ],
      "payable": false,
      "stateMutability": "nonpayable",
      "type": "function",
      "signature": "0x4c418037"
    },
    {
      "constant": false,
      "inputs": [],
      "name": "queryTotalPurchase",
      "outputs": [
        {
          "name": "",
          "type": "uint256"
        }
      ],
      "payable": false,
      "stateMutability": "nonpayable",
      "type": "function",
      "signature": "0xf08d610c"
    }
  ],
  "bytecode": "0x608060405234801561001057600080fd5b50600060038190555061117a806100286000396000f3fe60806040526004361061006d576000357c0100000000000000000000000000000000000000000000000000000000900463ffffffff16806302bd26b714610072578063386b7f99146100af57806343f82db7146100da5780634c41803714610105578063f08d610c14610142575b600080fd5b34801561007e57600080fd5b5061009960048036036100949190810190610e13565b61016d565b6040516100a69190610fbd565b60405180910390f35b3480156100bb57600080fd5b506100c4610217565b6040516100d19190610ffa565b60405180910390f35b3480156100e657600080fd5b506100ef610223565b6040516100fc9190610ffa565b60405180910390f35b34801561011157600080fd5b5061012c60048036036101279190810190610ebe565b610229565b6040516101399190610fd8565b60405180910390f35b34801561014e57600080fd5b506101576102a6565b6040516101649190610ffa565b60405180910390f35b6000806004600087815260200190815260200160002090508481600001908051906020019061019d929190610b7b565b5060008090505b84518110156101f7576101e98260010186838151811015156101c257fe5b9060200190602002015186848151811015156101da57fe5b906020019060200201516102b0565b5080806001019150506101a4565b506003600081548092919060010191905055506001915050949350505050565b60008060020154905081565b60035481565b60606000600190505b60016003540181101561029c5761025e60046000838152602001908152602001600020600001866104a6565b1561028f5760606102836004600084815260200190815260200160002060010161059f565b9050809250505061029e565b8080600101915050610232565b505b949350505050565b6000600354905090565b60008084600001846040518082805190602001908083835b6020831015156102ed57805182526020820191506020810190506020830392506102c8565b6001836020036101000a03801982511681845116808217855250505050505090500191505090815260200160405180910390206000015490508285600001856040518082805190602001908083835b602083101515610361578051825260208201915060208101905060208303925061033c565b6001836020036101000a038019825116818451168082178552505050505050905001915050908152602001604051809103902060010190805190602001906103aa929190610b7b565b5060008111156103be57600191505061049f565b8460010180548091906001016103d49190610bfb565b90506001810185600001856040518082805190602001908083835b60208310151561041457805182526020820191506020810190506020830392506103ef565b6001836020036101000a03801982511681845116808217855250505050505090500191505090815260200160405180910390206000018190555083856001018281548110151561046057fe5b90600052602060002090600202016000019080519060200190610484929190610b7b565b50846002016000815480929190600101919050555060009150505b9392505050565b6000816040516020018082805190602001908083835b6020831015156104e157805182526020820191506020810190506020830392506104bc565b6001836020036101000a0380198251168184511680821785525050505050509050019150506040516020818303038152906040528051906020012083604051602001808280546001816001161561010002031660029004801561057b5780601f1061055957610100808354040283529182019161057b565b820191906000526020600020905b815481529060010190602001808311610567575b50509150506040516020818303038152906040528051906020012014905092915050565b60608060608060006105b08661062f565b90505b6105bd8682610662565b15610617576060806105cf8884610676565b809250819350505060008314156105eb57819550809450610604565b6105f58683610848565b95506106018582610848565b94505b50506106108682610b13565b90506105b3565b506106228383610848565b9050809350505050919050565b600061065b827fffffffffffffffffffffffffffffffffffffffffffffffffffffffffffffffff610b13565b9050919050565b600082600101805490508210905092915050565b606080836001018381548110151561068a57fe5b90600052602060002090600202016000018054600181600116156101000203166002900480601f01602080910402602001604051908101604052809291908181526020018280546001816001161561010002031660029004801561072f5780601f106107045761010080835404028352916020019161072f565b820191906000526020600020905b81548152906001019060200180831161071257829003601f168201915b5050505050915083600001826040518082805190602001908083835b602083101515610770578051825260208201915060208101905060208303925061074b565b6001836020036101000a03801982511681845116808217855250505050505090500191505090815260200160405180910390206001018054600181600116156101000203166002900480601f01602080910402602001604051908101604052809291908181526020018280546001816001161561010002031660029004801561083a5780601f1061080f5761010080835404028352916020019161083a565b820191906000526020600020905b81548152906001019060200180831161081d57829003601f168201915b505050505090509250929050565b606080839050606083905060606040805190810160405280600181526020017f2c000000000000000000000000000000000000000000000000000000000000008152509050606081518351855101016040519080825280601f01601f1916602001820160405280156108c95781602001600182028038833980820191505090505b5090506060819050600080905060008090505b865181101561098f5786818151811015156108f357fe5b9060200101517f010000000000000000000000000000000000000000000000000000000000000090047f010000000000000000000000000000000000000000000000000000000000000002838380600101945081518110151561095257fe5b9060200101907effffffffffffffffffffffffffffffffffffffffffffffffffffffffffffff1916908160001a90535080806001019150506108dc565b5060008090505b8451811015610a495784818151811015156109ad57fe5b9060200101517f010000000000000000000000000000000000000000000000000000000000000090047f0100000000000000000000000000000000000000000000000000000000000000028383806001019450815181101515610a0c57fe5b9060200101907effffffffffffffffffffffffffffffffffffffffffffffffffffffffffffff1916908160001a9053508080600101915050610996565b5060008090505b8551811015610b03578581815181101515610a6757fe5b9060200101517f010000000000000000000000000000000000000000000000000000000000000090047f0100000000000000000000000000000000000000000000000000000000000000028383806001019450815181101515610ac657fe5b9060200101907effffffffffffffffffffffffffffffffffffffffffffffffffffffffffffff1916908160001a9053508080600101915050610a50565b5082965050505050505092915050565b600081806001019250505b826001018054905082108015610b6057508260010182815481101515610b4057fe5b906000526020600020906002020160010160009054906101000a900460ff165b15610b72578180600101925050610b1e565b81905092915050565b828054600181600116156101000203166002900490600052602060002090601f016020900481019282601f10610bbc57805160ff1916838001178555610bea565b82800160010185558215610bea579182015b82811115610be9578251825591602001919060010190610bce565b5b509050610bf79190610c2d565b5090565b815481835581811115610c2857600202816002028360005260206000209182019101610c279190610c52565b5b505050565b610c4f91905b80821115610c4b576000816000905550600101610c33565b5090565b90565b610c9291905b80821115610c8e5760008082016000610c719190610c95565b6001820160006101000a81549060ff021916905550600201610c58565b5090565b90565b50805460018160011615610100020316600290046000825580601f10610cbb5750610cda565b601f016020900490600052602060002090810190610cd99190610c2d565b5b50565b600082601f8301121515610cf057600080fd5b8135610d03610cfe82611042565b611015565b9150818183526020840193506020810190508360005b83811015610d495781358601610d2f8882610d53565b845260208401935060208301925050600181019050610d19565b5050505092915050565b600082601f8301121515610d6657600080fd5b8135610d79610d748261106a565b611015565b91508082526020830160208301858383011115610d9557600080fd5b610da08382846110ed565b50505092915050565b600082601f8301121515610dbc57600080fd5b8135610dcf610dca82611096565b611015565b91508082526020830160208301858383011115610deb57600080fd5b610df68382846110ed565b50505092915050565b6000610e0b82356110e3565b905092915050565b60008060008060808587031215610e2957600080fd5b6000610e3787828801610dff565b945050602085013567ffffffffffffffff811115610e5457600080fd5b610e6087828801610da9565b935050604085013567ffffffffffffffff811115610e7d57600080fd5b610e8987828801610cdd565b925050606085013567ffffffffffffffff811115610ea657600080fd5b610eb287828801610cdd565b91505092959194509250565b60008060008060808587031215610ed457600080fd5b6000610ee287828801610dff565b945050602085013567ffffffffffffffff811115610eff57600080fd5b610f0b87828801610da9565b935050604085013567ffffffffffffffff811115610f2857600080fd5b610f3487828801610da9565b925050606085013567ffffffffffffffff811115610f5157600080fd5b610f5d87828801610cdd565b91505092959194509250565b610f72816110cd565b82525050565b6000610f83826110c2565b808452610f978160208601602086016110fc565b610fa08161112f565b602085010191505092915050565b610fb7816110d9565b82525050565b6000602082019050610fd26000830184610f69565b92915050565b60006020820190508181036000830152610ff28184610f78565b905092915050565b600060208201905061100f6000830184610fae565b92915050565b6000604051905081810181811067ffffffffffffffff8211171561103857600080fd5b8060405250919050565b600067ffffffffffffffff82111561105957600080fd5b602082029050602081019050919050565b600067ffffffffffffffff82111561108157600080fd5b601f19601f8301169050602081019050919050565b600067ffffffffffffffff8211156110ad57600080fd5b601f19601f8301169050602081019050919050565b600081519050919050565b60008115159050919050565b6000819050919050565b6000819050919050565b82818337600083830152505050565b60005b8381101561111a5780820151818401526020810190506110ff565b83811115611129576000848401525b50505050565b6000601f19601f830116905091905056fea265627a7a723058200f7b4d73700b01c03190fa58067f367494cdfbea86610ed13486dfa6260f54596c6578706572696d656e74616cf50037",
  "source": "pragma solidity ^0.5.0;\npragma experimental ABIEncoderV2;\n\nimport \"./iterable_mapping.sol\";\nimport \"./stringTools.sol\";\n\ncontract International {\n    \n    IterableMapping.itmap public assetdata;\n    \n    struct confirmPurchase {\n        string OrderId;    //Confirmpurchase\n        //string createAt;    //1566278738 uinx\n        IterableMapping.itmap confirmPurchaseData;    //map{\"buyer\",\"tdergouzi\"}\n    }\n    uint256 public totalConfirmPurchases;\n    \n    constructor() public{\n        totalConfirmPurchases = 0;\n    }\n    \n    struct shipping {\n        string OrderId;    //Transportation\n        //string createAt;    //1566278924 uinx\n        IterableMapping.itmap shippingData; //\n    }\n    \n    struct label {\n        string OrderId;    //Marking\n        //string createAt;    //1566278924 uinx\n        IterableMapping.itmap labelData; \n    }\n    \n    struct store {\n        string OrderId; //Into\n        //string createAt;\n        IterableMapping.itmap storeData;\n    }\n    \n    \n    mapping(uint256 => confirmPurchase)  tokenIdtoconfirmPurchase;\n    \n    function insertconfirmPurchase(uint256 _num,string memory OrderId,string[] memory keys, string[] memory values) public returns(bool){\n        confirmPurchase storage newConfirmPurchase = tokenIdtoconfirmPurchase[_num];\n        newConfirmPurchase.OrderId = OrderId;\n        for (uint i = 0; i < keys.length; i++) {\n            IterableMapping.insert(newConfirmPurchase.confirmPurchaseData,keys[i], values[i]);\n        }\n        totalConfirmPurchases++;\n        return true;\n    }\n    \n    function queryconfirmPurchase(uint256 _num, string memory OrderId,string memory key, string[] memory values) public returns(string memory){\n         for (uint i = 1; i < totalConfirmPurchases + 1 ; i++){\n             if (StringTools.compareStrings(tokenIdtoconfirmPurchase[i].OrderId, OrderId)){\n                string memory KVS = keyValues(tokenIdtoconfirmPurchase[i].confirmPurchaseData);         \n                //string memory values = values(tokenIdtoconfirmPurchase[i].confirmPurchaseData);\n                //string memory results = StringTools._strConcat(keys,values);\n                return KVS;\n             }\n         }\n         //return tokenIdtoconfirmPurchase[_num].confirmPurchaseData.data[key].value;\n    }\n    \n    function queryTotalPurchase() public returns(uint256){\n        return totalConfirmPurchases;\n    }\n\n    function keyValues(IterableMapping.itmap storage im) internal returns (string memory) {\n        string memory keys;\n        string memory values;\n        string memory results;\n        for (uint i = IterableMapping.iterate_start(im); IterableMapping.iterate_valid(im, i); i = IterableMapping.iterate_next(im, i)) {\n            string memory key;\n            string memory value;\n            (key,value) = IterableMapping.iterate_get(im, i);\n            if (i == 0) {\n                keys = key;\n                values = value;\n            }else {\n                keys = StringTools._strConcat(keys,key);\n                values = StringTools._strConcat(values,value);\n            }\n        }\n        //return values;\n        return results = StringTools._strConcat(keys,values);\n        //return results;\n    }\n    \n}\n    \n",
  "sourcePath": "/root/AntService/cross-border/truffle/contracts/CRUD.sol",
  "compiler": {
    "name": "solc",
    "version": "0.5.0+commit.1d4f565a.Emscripten.clang"
  },
  "schemaVersion": "3.0.2",
  "updatedAt": "2019-08-28T02:18:09.790Z",
  "devdoc": {
    "methods": {}
  },
  "userdoc": {
    "methods": {}
  }
}