{
  "contractName": "International",
  "abi": [
    {
      "constant": true,
      "inputs": [],
      "name": "assetdata",
      "outputs": [
        {
          "name": "size",
          "type": "uint256"
        }
      ],
      "payable": false,
      "stateMutability": "view",
      "type": "function"
    },
    {
      "constant": true,
      "inputs": [],
      "name": "totalConfirmPurchases",
      "outputs": [
        {
          "name": "",
          "type": "uint256"
        }
      ],
      "payable": false,
      "stateMutability": "view",
      "type": "function"
    },
    {
      "inputs": [],
      "payable": false,
      "stateMutability": "nonpayable",
      "type": "constructor"
    },
    {
      "constant": false,
      "inputs": [
        {
          "name": "_num",
          "type": "uint256"
        },
        {
          "name": "orderId",
          "type": "string"
        },
        {
          "name": "contract_name",
          "type": "string"
        },
        {
          "name": "keys",
          "type": "string[]"
        },
        {
          "name": "values",
          "type": "string[]"
        }
      ],
      "name": "insertconfirmPurchase",
      "outputs": [
        {
          "name": "",
          "type": "bool"
        }
      ],
      "payable": false,
      "stateMutability": "nonpayable",
      "type": "function"
    },
    {
      "constant": false,
      "inputs": [
        {
          "name": "_num",
          "type": "uint256"
        },
        {
          "name": "orderId",
          "type": "string"
        },
        {
          "name": "contract_name",
          "type": "string"
        },
        {
          "name": "key",
          "type": "string"
        },
        {
          "name": "values",
          "type": "string[]"
        }
      ],
      "name": "queryconfirmPurchase",
      "outputs": [
        {
          "name": "",
          "type": "string"
        }
      ],
      "payable": false,
      "stateMutability": "nonpayable",
      "type": "function"
    },
    {
      "constant": false,
      "inputs": [],
      "name": "queryTotalPurchase",
      "outputs": [
        {
          "name": "",
          "type": "uint256"
        }
      ],
      "payable": false,
      "stateMutability": "nonpayable",
      "type": "function"
    }
  ],
  "bytecode": "0x608060405234801561001057600080fd5b50600060038190555061155f806100286000396000f3fe60806040526004361061006d576000357c0100000000000000000000000000000000000000000000000000000000900463ffffffff168063100cb11c14610072578063386b7f99146100af57806343f82db7146100da57806382e120b714610105578063f08d610c14610142575b600080fd5b34801561007e57600080fd5b50610099600480360361009491908101906111a0565b61016d565b6040516100a691906113a2565b60405180910390f35b3480156100bb57600080fd5b506100c4610231565b6040516100d191906113df565b60405180910390f35b3480156100e657600080fd5b506100ef61023d565b6040516100fc91906113df565b60405180910390f35b34801561011157600080fd5b5061012c60048036036101279190810190611277565b610243565b60405161013991906113bd565b60405180910390f35b34801561014e57600080fd5b50610157610540565b60405161016491906113df565b60405180910390f35b6000806004600088815260200190815260200160002090508581600001908051906020019061019d929190610f08565b50848160010190805190602001906101b6929190610f08565b5060008090505b8451811015610210576102028260020186838151811015156101db57fe5b9060200190602002015186848151811015156101f357fe5b9060200190602002015161054a565b5080806001019150506101bd565b50600360008154809291906001019190505550600191505095945050505050565b60008060020154905081565b60035481565b6060806000600190505b60016003540181101561053257610299876040805190810160405280600281526020017f4e41000000000000000000000000000000000000000000000000000000000000815250610740565b80156102e157506102df866040805190810160405280600281526020017f4e41000000000000000000000000000000000000000000000000000000000000815250610740565b155b1561033b576103056004600083815260200190815260200160002060010187610833565b1561033a57606061032a6004600084815260200190815260200160002060020161092c565b905061033683826109bc565b9250505b5b61037a866040805190810160405280600281526020017f4e41000000000000000000000000000000000000000000000000000000000000815250610740565b80156103c257506103c0876040805190810160405280600281526020017f4e41000000000000000000000000000000000000000000000000000000000000815250610740565b155b1561041c576103e66004600083815260200190815260200160002060000188610833565b1561041b57606061040b6004600084815260200190815260200160002060020161092c565b905061041783826109bc565b9250505b5b61045b866040805190810160405280600281526020017f4e41000000000000000000000000000000000000000000000000000000000000815250610740565b1580156104a457506104a2876040805190810160405280600281526020017f4e41000000000000000000000000000000000000000000000000000000000000815250610740565b155b15610525576104c86004600083815260200190815260200160002060000188610833565b80156104ef57506104ee6004600083815260200190815260200160002060010187610833565b5b156105245760606105146004600084815260200190815260200160002060020161092c565b905061052083826109bc565b9250505b5b808060010191505061024d565b508091505095945050505050565b6000600354905090565b60008084600001846040518082805190602001908083835b6020831015156105875780518252602082019150602081019050602083039250610562565b6001836020036101000a03801982511681845116808217855250505050505090500191505090815260200160405180910390206000015490508285600001856040518082805190602001908083835b6020831015156105fb57805182526020820191506020810190506020830392506105d6565b6001836020036101000a03801982511681845116808217855250505050505090500191505090815260200160405180910390206001019080519060200190610644929190610f08565b506000811115610658576001915050610739565b84600101805480919060010161066e9190610f88565b90506001810185600001856040518082805190602001908083835b6020831015156106ae5780518252602082019150602081019050602083039250610689565b6001836020036101000a0380198251168184511680821785525050505050509050019150509081526020016040518091039020600001819055508385600101828154811015156106fa57fe5b9060005260206000209060020201600001908051906020019061071e929190610f08565b50846002016000815480929190600101919050555060009150505b9392505050565b6000816040516020018082805190602001908083835b60208310151561077b5780518252602082019150602081019050602083039250610756565b6001836020036101000a03801982511681845116808217855250505050505090500191505060405160208183030381529060405280519060200120836040516020018082805190602001908083835b6020831015156107ef57805182526020820191506020810190506020830392506107ca565b6001836020036101000a0380198251168184511680821785525050505050509050019150506040516020818303038152906040528051906020012014905092915050565b6000816040516020018082805190602001908083835b60208310151561086e5780518252602082019150602081019050602083039250610849565b6001836020036101000a038019825116818451168082178552505050505050905001915050604051602081830303815290604052805190602001208360405160200180828054600181600116156101000203166002900480156109085780601f106108e6576101008083540402835291820191610908565b820191906000526020600020905b8154815290600101906020018083116108f4575b50509150506040516020818303038152906040528051906020012014905092915050565b606080606080600061093d86610c87565b90505b61094a8682610cba565b156109a45760608061095c8884610cce565b8092508193505050600083141561097857819550809450610991565b61098286836109bc565b955061098e85826109bc565b94505b505061099d8682610ea0565b9050610940565b506109af83836109bc565b9050809350505050919050565b606080839050606083905060606040805190810160405280600181526020017f2c000000000000000000000000000000000000000000000000000000000000008152509050606081518351855101016040519080825280601f01601f191660200182016040528015610a3d5781602001600182028038833980820191505090505b5090506060819050600080905060008090505b8651811015610b03578681815181101515610a6757fe5b9060200101517f010000000000000000000000000000000000000000000000000000000000000090047f0100000000000000000000000000000000000000000000000000000000000000028383806001019450815181101515610ac657fe5b9060200101907effffffffffffffffffffffffffffffffffffffffffffffffffffffffffffff1916908160001a9053508080600101915050610a50565b5060008090505b8451811015610bbd578481815181101515610b2157fe5b9060200101517f010000000000000000000000000000000000000000000000000000000000000090047f0100000000000000000000000000000000000000000000000000000000000000028383806001019450815181101515610b8057fe5b9060200101907effffffffffffffffffffffffffffffffffffffffffffffffffffffffffffff1916908160001a9053508080600101915050610b0a565b5060008090505b8551811015610c77578581815181101515610bdb57fe5b9060200101517f010000000000000000000000000000000000000000000000000000000000000090047f0100000000000000000000000000000000000000000000000000000000000000028383806001019450815181101515610c3a57fe5b9060200101907effffffffffffffffffffffffffffffffffffffffffffffffffffffffffffff1916908160001a9053508080600101915050610bc4565b5082965050505050505092915050565b6000610cb3827fffffffffffffffffffffffffffffffffffffffffffffffffffffffffffffffff610ea0565b9050919050565b600082600101805490508210905092915050565b6060808360010183815481101515610ce257fe5b90600052602060002090600202016000018054600181600116156101000203166002900480601f016020809104026020016040519081016040528092919081815260200182805460018160011615610100020316600290048015610d875780601f10610d5c57610100808354040283529160200191610d87565b820191906000526020600020905b815481529060010190602001808311610d6a57829003601f168201915b5050505050915083600001826040518082805190602001908083835b602083101515610dc85780518252602082019150602081019050602083039250610da3565b6001836020036101000a03801982511681845116808217855250505050505090500191505090815260200160405180910390206001018054600181600116156101000203166002900480601f016020809104026020016040519081016040528092919081815260200182805460018160011615610100020316600290048015610e925780601f10610e6757610100808354040283529160200191610e92565b820191906000526020600020905b815481529060010190602001808311610e7557829003601f168201915b505050505090509250929050565b600081806001019250505b826001018054905082108015610eed57508260010182815481101515610ecd57fe5b906000526020600020906002020160010160009054906101000a900460ff165b15610eff578180600101925050610eab565b81905092915050565b828054600181600116156101000203166002900490600052602060002090601f016020900481019282601f10610f4957805160ff1916838001178555610f77565b82800160010185558215610f77579182015b82811115610f76578251825591602001919060010190610f5b565b5b509050610f849190610fba565b5090565b815481835581811115610fb557600202816002028360005260206000209182019101610fb49190610fdf565b5b505050565b610fdc91905b80821115610fd8576000816000905550600101610fc0565b5090565b90565b61101f91905b8082111561101b5760008082016000610ffe9190611022565b6001820160006101000a81549060ff021916905550600201610fe5565b5090565b90565b50805460018160011615610100020316600290046000825580601f106110485750611067565b601f0160209004906000526020600020908101906110669190610fba565b5b50565b600082601f830112151561107d57600080fd5b813561109061108b82611427565b6113fa565b9150818183526020840193506020810190508360005b838110156110d657813586016110bc88826110e0565b8452602084019350602083019250506001810190506110a6565b5050505092915050565b600082601f83011215156110f357600080fd5b81356111066111018261144f565b6113fa565b9150808252602083016020830185838301111561112257600080fd5b61112d8382846114d2565b50505092915050565b600082601f830112151561114957600080fd5b813561115c6111578261147b565b6113fa565b9150808252602083016020830185838301111561117857600080fd5b6111838382846114d2565b50505092915050565b600061119882356114c8565b905092915050565b600080600080600060a086880312156111b857600080fd5b60006111c68882890161118c565b955050602086013567ffffffffffffffff8111156111e357600080fd5b6111ef88828901611136565b945050604086013567ffffffffffffffff81111561120c57600080fd5b61121888828901611136565b935050606086013567ffffffffffffffff81111561123557600080fd5b6112418882890161106a565b925050608086013567ffffffffffffffff81111561125e57600080fd5b61126a8882890161106a565b9150509295509295909350565b600080600080600060a0868803121561128f57600080fd5b600061129d8882890161118c565b955050602086013567ffffffffffffffff8111156112ba57600080fd5b6112c688828901611136565b945050604086013567ffffffffffffffff8111156112e357600080fd5b6112ef88828901611136565b935050606086013567ffffffffffffffff81111561130c57600080fd5b61131888828901611136565b925050608086013567ffffffffffffffff81111561133557600080fd5b6113418882890161106a565b9150509295509295909350565b611357816114b2565b82525050565b6000611368826114a7565b80845261137c8160208601602086016114e1565b61138581611514565b602085010191505092915050565b61139c816114be565b82525050565b60006020820190506113b7600083018461134e565b92915050565b600060208201905081810360008301526113d7818461135d565b905092915050565b60006020820190506113f46000830184611393565b92915050565b6000604051905081810181811067ffffffffffffffff8211171561141d57600080fd5b8060405250919050565b600067ffffffffffffffff82111561143e57600080fd5b602082029050602081019050919050565b600067ffffffffffffffff82111561146657600080fd5b601f19601f8301169050602081019050919050565b600067ffffffffffffffff82111561149257600080fd5b601f19601f8301169050602081019050919050565b600081519050919050565b60008115159050919050565b6000819050919050565b6000819050919050565b82818337600083830152505050565b60005b838110156114ff5780820151818401526020810190506114e4565b8381111561150e576000848401525b50505050565b6000601f19601f830116905091905056fea265627a7a72305820727d16f87fb1b6292bf8d19725e2c78d99ae478e6ce1272b6e21d726d9455b0e6c6578706572696d656e74616cf50037",
  "source": "pragma solidity ^0.5.0;\npragma experimental ABIEncoderV2;\n\nimport \"./iterable_mapping.sol\";\nimport \"./stringTools.sol\";\n\ncontract International {\n    \n    IterableMapping.itmap public assetdata;\n    \n    struct confirmPurchase {\n        string orderId;    //Confirmpurchase\n        string contract_name;\n        //string createAt;    //1566278738 uinx\n        IterableMapping.itmap confirmPurchaseData;    //map{\"buyer\",\"tdergouzi\"}\n    }\n    uint256 public totalConfirmPurchases;\n    \n    constructor() public{\n        totalConfirmPurchases = 0;\n    }\n    \n    mapping(uint256 => confirmPurchase)  tokenIdtoconfirmPurchase;\n    \n    function insertconfirmPurchase(uint256 _num,string memory orderId,string memory contract_name,string[] memory keys, string[] memory values) public returns(bool){\n        confirmPurchase storage newConfirmPurchase = tokenIdtoconfirmPurchase[_num];\n        newConfirmPurchase.orderId = orderId;\n        newConfirmPurchase.contract_name = contract_name;\n        for (uint i = 0; i < keys.length; i++) {\n            IterableMapping.insert(newConfirmPurchase.confirmPurchaseData,keys[i], values[i]);\n        }\n        totalConfirmPurchases++;\n        return true;\n    }\n    \n    function queryconfirmPurchase(uint256 _num, string memory orderId, string memory contract_name, string memory key, string[] memory values) public returns(string memory){\n        string memory results;\n        for (uint i=1; i<totalConfirmPurchases+1;i++){\n             //searching contract_name,ignore which orderId is \n             if (  (StringTools.compareStrings2(orderId, \"NA\"))    &&   (!(StringTools.compareStrings2(contract_name, \"NA\"))) ){\n               if (StringTools.compareStrings(tokenIdtoconfirmPurchase[i].contract_name, contract_name)){\n                string memory KVS = keyValues(tokenIdtoconfirmPurchase[i].confirmPurchaseData);\n                results = StringTools._strConcat(results,KVS);\n             }\n           }\n              //searching orderId, ignore which contract_name is \n              if (  (StringTools.compareStrings2(contract_name, \"NA\"))    &&   (!(StringTools.compareStrings2(orderId, \"NA\"))) ){\n                if (StringTools.compareStrings(tokenIdtoconfirmPurchase[i].orderId, orderId)){\n                string memory KVS = keyValues(tokenIdtoconfirmPurchase[i].confirmPurchaseData);\n                results = StringTools._strConcat(results,KVS);\n             }\n           }\n               //searching both orderId and contract_name\n              if (  (!(StringTools.compareStrings2(contract_name, \"NA\")))    &&   (!(StringTools.compareStrings2(orderId, \"NA\"))) ){\n                if (   (StringTools.compareStrings(tokenIdtoconfirmPurchase[i].orderId, orderId))   &&     (StringTools.compareStrings(tokenIdtoconfirmPurchase[i].contract_name, contract_name)) ){\n                string memory KVS = keyValues(tokenIdtoconfirmPurchase[i].confirmPurchaseData);\n                results = StringTools._strConcat(results,KVS);\n             }\n           }\n        }\n        return results;\n    }\n    \n    //function querybyContractname(...){\n\n    \n    function queryTotalPurchase() public returns(uint256){\n        return totalConfirmPurchases;\n    }\n    \n    function keyValues(IterableMapping.itmap storage im) internal returns (string memory) {\n        string memory keys;\n        string memory values;\n        string memory results;\n        for (uint i = IterableMapping.iterate_start(im); IterableMapping.iterate_valid(im, i); i = IterableMapping.iterate_next(im, i)) {\n            string memory key;\n            string memory value;\n            (key,value) = IterableMapping.iterate_get(im, i);\n            if (i == 0) {\n                keys = key;\n                values = value;\n            }else {\n                keys = StringTools._strConcat(keys,key);\n                values = StringTools._strConcat(values,value);\n            }\n        }\n        return results = StringTools._strConcat(keys,values);\n        \n    }\n}\n    \n",
  "sourcePath": "/Users/lu/Desktop/AntBlockchain/跨境链/AntService/truffle/contracts/CRUD.sol",
  "compiler": {
    "name": "solc",
    "version": "0.5.0+commit.1d4f565a.Emscripten.clang"
  },
  "schemaVersion": "3.0.13",
  "updatedAt": "2019-08-29T06:45:15.654Z",
  "devdoc": {
    "methods": {}
  },
  "userdoc": {
    "methods": {}
  }
}